:100000000C943A000C9457000C9457000C94570031
:100010000C9457000C9457000C9457000C94570004
:100020000C9457000C9457000C9457000C945700F4
:100030000C9457000C9457000C9457000C945700E4
:100040000C9457000C9457000C9457000C945700D4
:100050000C9457000C9457000C9457000C945700C4
:100060000C9457000C9457000C9457000C945700B4
:100070000C94570011241FBECFEFD4E0DEBFCDBFDC
:1000800011E0A0E0B1E0E6E6F2E002C005900D92DA
:10009000AE30B107D9F711E0AEE0B1E001C01D927A
:1000A000AF30B107E1F70E94D4000C9431010C94F9
:1000B000000089B1837090910101891799F0E92FAF
:1000C000F0E0E65FFE4F2081821308C0911108C066
:1000D00090910E019F5F90930E0102C0833011F446
:1000E0008093010190910001891799F0E92FF0E0C8
:1000F000EA5FFE4F2081821308C0911108C09091E1
:100100000E01915090930E0102C0833011F4809340
:1001100000010895A1E0B0E0E0E9F0E00C940801EE
:100120009091C80095FFFCCF90E99093CE009091FC
:10013000C80095FFFCCF8093CE009091C80095FF3A
:10014000FCCF90E49093CE0000E117E289830E94F7
:10015000590001501109898101151105B9F79091D4
:10016000C80095FFFCCF8093CE008091C80085FF2A
:10017000FCCF1092CE002196E4E00C94240100E420
:1001800010E2C2E0D1E08BB180278BB999918091C8
:100190000E01890F0E948A0081E0C630D80799F7C6
:1001A0008BB181278BB9EDCF1092CD0083E0809386
:1001B000CC0088E08093C90080E68AB983E88BB9D7
:1001C0008BB190E489278BB98BB190E289278BB9E9
:1001D0008BB189278BB92FE78AE196E021508040C7
:1001E0009040E1F700C000008BB190E289278BB905
:1001F0000E94BF002F923F924F925F926F927F9228
:100200008F929F92AF92BF92CF92DF92EF92FF9226
:100210000F931F93CF93DF93CDB7DEB7CA1BDB0BD2
:100220000FB6F894DEBF0FBECDBF09942A88398877
:1002300048885F846E847D848C849B84AA84B9847E
:10024000C884DF80EE80FD800C811B81AA81B9818A
:10025000CE0FD11D0FB6F894DEBF0FBECDBFED019E
:060260000895F894FFCFA1
:0E026600030341434546010300020200030169
:00000001FF
